:100000000C9434000C9449000C9449000C94490061
:100010000C9449000C9449000C9449000C9449003C
:100020000C9449000C9449000C9449000C9449002C
:100030000C9449000C9449000C9449000C9449001C
:100040000C9449000C9449000C9449000C9449000C
:100050000C9449000C9449000C9449000C944900FC
:100060000C9449000C94490011241FBECFEFD8E036
:10007000DEBFCDBF11E0A0E0B1E0E4EEF3E002C0EE
:1000800005900D92AE37B107D9F70E94C1010C94CB
:10009000F0010C940000209A5098589A5198599A5F
:1000A000089580E480937C0087E880937A00089527
:1000B00090917C00987F90937C0090917C00877059
:1000C000892B80937C0080917A00806480937A00F1
:1000D00080917A0084FFFCCF80917A0080618093C8
:1000E0007A002091780030917900C9010895E0E804
:1000F000F0E0808183688083E1E8F0E080818B60BC
:100100008083219A0895EF92FF920F931F93DF93BC
:10011000CF93CDB7DEB769970FB6F894DEBF0FBEA9
:10012000CDBF9C01893C910598F58AEA90E09093B7
:10013000890080938800DE011196E0E0F1E086E11D
:1001400001900D928150E1F7FE01779683E0DF0187
:100150001D928A95E9F78E010F5F1F4F46E1E42E4D
:10016000F12CEC0EFD1EF80181918F01992787FD7E
:1001700090950E94B9010E151F05A9F788EC90E033
:1001800020E931E0F9013197F1F70197D9F7D1C0B2
:10019000825D90408352914098F586E891E090937B
:1001A000890080938800DE011196E9E1F1E086E1A3
:1001B00001900D928150E1F7FE01779683E0DF0117
:1001C0001D928A95E9F78E010F5F1F4F36E1E32EEE
:1001D000F12CEC0EFD1EF80181918F01992787FD0E
:1001E00090950E94B9010E151F05A9F788EC90E0C3
:1001F00020E931E0F9013197F1F70197D9F799C07A
:10020000C9018E5F91408F3B910598F58EE992E090
:100210009093890080938800DE011196E2E3F1E07B
:1002200086E101900D928150E1F7FE01779683E01F
:10023000DF011D928A95E9F78E010F5F1F4F26E1BE
:10024000E22EF12CEC0EFD1EF80181918F01992711
:1002500087FD90950E94B9010E151F05A9F788EC3E
:1002600090E020E931E0F9013197F1F70197D9F7F2
:1002700060C0265C3240AE014F5F5F4F2B53314070
:1002800090F58AEC93E09093890080938800DA01DE
:10029000EBE4F1E086E101900D928150E1F7FE017F
:1002A000779683E0DF011D928A95E9F78E010F5F53
:1002B0001F4F96E1E92EF12CEC0EFD1EF801819105
:1002C0008F01992787FD90950E94B9010E151F0592
:1002D000A9F788EC90E020E931E0F9013197F1F7D6
:1002E0000197D9F726C01092890010928800DA0190
:1002F000E4E6F1E08FE001900D928150E1F7FE011C
:1003000070968AE0DF011D928A95E9F78E010F5FF2
:100310001F4F81E1E82EF12CEC0EFD1EF8018191BA
:100320008F01992787FD90950E94B9010E151F0531
:10033000A9F780E069960FB6F894DEBF0FBECDBF77
:10034000CF91DF911F910F91FF90EF9008958093CF
:10035000C4009093C50086E48093C20088ED80932A
:10036000C10008958091C00087FFFCCF8091C60036
:100370000895982F8091C00085FFFCCF9093C60010
:100380000895CF93DF930E944B000E9451000E947A
:10039000770087E690E00E94A70120E931E04899C4
:1003A00012C0499910C0289AC0E9D1E080E00E94AB
:1003B00058000E94830080ED97E0FE013197F1F72D
:1003C0000197D9F7F3CF10928900109288002898EE
:1003D00080ED97E0F9013197F1F70197D9F7DFCF79
:0403E000F894FFCFBF
:1003E40054656D706572617475726520697320322D
:1003F40030C2B0430A0000000054656D706572613C
:1004040074757265206973203235C2B0430A0000E6
:10041400000054656D70657261747572652069734E
:10042400203239C2B0430A0000000054656D706583
:10043400726174757265206973203333C2B0430AE4
:1004440000000000486561746572206973204F469E
:0E045400460A0000000000000000000000004A
:00000001FF
