:100000000C9434000C943E000C943E000C943E0082
:100010000C943E000C943E000C943E000C943E0068
:100020000C943E000C943E000C943E000C943E0058
:100030000C943E000C943E000C943E000C943E0048
:100040000C943E000C943E000C943E000C943E0038
:100050000C943E000C943E000C943E000C943E0028
:100060000C943E000C943E0011241FBECFEFD8E04C
:10007000DEBFCDBF0E946C000C94A4000C94000065
:10008000209A5098589A5198599A089580E48093EC
:100090007C0087E880937A00089590917C00987F97
:1000A00090937C0090917C008770892B80937C00DA
:1000B00080917A00806480937A0080917A0084FF36
:1000C000FCCF80917A00806180937A002091780043
:1000D00030917900C90108950E94400080E4809326
:1000E0007C0087E880937A00489902C0499B02C04F
:1000F0002898FACF289A40E951E080917C00887FC7
:1001000080937C0080917C0080937C0080917A00B9
:10011000806480937A0080917A0084FFFCCF809184
:100120007A00806180937A008091780090917900C4
:1001300020E030E0CA010197F1F72F5F3F4F87E0E1
:0C014000203D3807B9F7D9CFF894FFCF65
:00000001FF
